{
  "_format": "hh-sol-artifact-1",
  "contractName": "GameHouseNoSig",
  "sourceName": "mantle_contract/contracts/GeneralisedGameHouseV3.sol",
  "abi": [
    {
      "inputs": [
        {
          "internalType": "address",
          "name": "_server",
          "type": "address"
        },
        {
          "internalType": "uint256",
          "name": "_minLiquidity",
          "type": "uint256"
        },
        {
          "internalType": "uint256",
          "name": "_maxPayoutPerTx",
          "type": "uint256"
        }
      ],
      "stateMutability": "nonpayable",
      "type": "constructor"
    },
    {
      "inputs": [],
      "name": "Insolvent",
      "type": "error"
    },
    {
      "inputs": [],
      "name": "NotServer",
      "type": "error"
    },
    {
      "inputs": [],
      "name": "Paused",
      "type": "error"
    },
    {
      "inputs": [],
      "name": "WithdrawTooLarge",
      "type": "error"
    },
    {
      "inputs": [],
      "name": "ZeroValue",
      "type": "error"
    },
    {
      "anonymous": false,
      "inputs": [
        {
          "indexed": true,
          "internalType": "address",
          "name": "player",
          "type": "address"
        },
        {
          "indexed": false,
          "internalType": "uint256",
          "name": "amount",
          "type": "uint256"
        }
      ],
      "name": "BetPlaced",
      "type": "event"
    },
    {
      "anonymous": false,
      "inputs": [
        {
          "indexed": true,
          "internalType": "address",
          "name": "from",
          "type": "address"
        },
        {
          "indexed": false,
          "internalType": "uint256",
          "name": "amount",
          "type": "uint256"
        }
      ],
      "name": "HouseFunded",
      "type": "event"
    },
    {
      "anonymous": false,
      "inputs": [
        {
          "indexed": true,
          "internalType": "address",
          "name": "to",
          "type": "address"
        },
        {
          "indexed": false,
          "internalType": "uint256",
          "name": "amount",
          "type": "uint256"
        }
      ],
      "name": "HouseWithdrawn",
      "type": "event"
    },
    {
      "anonymous": false,
      "inputs": [
        {
          "indexed": false,
          "internalType": "bool",
          "name": "paused",
          "type": "bool"
        }
      ],
      "name": "PausedSet",
      "type": "event"
    },
    {
      "anonymous": false,
      "inputs": [
        {
          "indexed": true,
          "internalType": "address",
          "name": "player",
          "type": "address"
        },
        {
          "indexed": false,
          "internalType": "uint256",
          "name": "amount",
          "type": "uint256"
        }
      ],
      "name": "PlayerPaid",
      "type": "event"
    },
    {
      "anonymous": false,
      "inputs": [
        {
          "indexed": true,
          "internalType": "address",
          "name": "newServer",
          "type": "address"
        }
      ],
      "name": "ServerUpdated",
      "type": "event"
    },
    {
      "inputs": [],
      "name": "bet",
      "outputs": [],
      "stateMutability": "payable",
      "type": "function"
    },
    {
      "inputs": [],
      "name": "fundHouse",
      "outputs": [],
      "stateMutability": "payable",
      "type": "function"
    },
    {
      "inputs": [],
      "name": "houseBalance",
      "outputs": [
        {
          "internalType": "uint256",
          "name": "",
          "type": "uint256"
        }
      ],
      "stateMutability": "view",
      "type": "function"
    },
    {
      "inputs": [],
      "name": "maxPayoutPerTx",
      "outputs": [
        {
          "internalType": "uint256",
          "name": "",
          "type": "uint256"
        }
      ],
      "stateMutability": "view",
      "type": "function"
    },
    {
      "inputs": [],
      "name": "minLiquidity",
      "outputs": [
        {
          "internalType": "uint256",
          "name": "",
          "type": "uint256"
        }
      ],
      "stateMutability": "view",
      "type": "function"
    },
    {
      "inputs": [],
      "name": "owner",
      "outputs": [
        {
          "internalType": "address",
          "name": "",
          "type": "address"
        }
      ],
      "stateMutability": "view",
      "type": "function"
    },
    {
      "inputs": [],
      "name": "paused",
      "outputs": [
        {
          "internalType": "bool",
          "name": "",
          "type": "bool"
        }
      ],
      "stateMutability": "view",
      "type": "function"
    },
    {
      "inputs": [
        {
          "internalType": "address",
          "name": "player",
          "type": "address"
        },
        {
          "internalType": "uint256",
          "name": "amount",
          "type": "uint256"
        }
      ],
      "name": "payPlayer",
      "outputs": [],
      "stateMutability": "nonpayable",
      "type": "function"
    },
    {
      "inputs": [],
      "name": "server",
      "outputs": [
        {
          "internalType": "address",
          "name": "",
          "type": "address"
        }
      ],
      "stateMutability": "view",
      "type": "function"
    },
    {
      "inputs": [
        {
          "internalType": "bool",
          "name": "_paused",
          "type": "bool"
        }
      ],
      "name": "setPaused",
      "outputs": [],
      "stateMutability": "nonpayable",
      "type": "function"
    },
    {
      "inputs": [
        {
          "internalType": "address",
          "name": "newServer",
          "type": "address"
        }
      ],
      "name": "setServer",
      "outputs": [],
      "stateMutability": "nonpayable",
      "type": "function"
    },
    {
      "inputs": [
        {
          "internalType": "uint256",
          "name": "amount",
          "type": "uint256"
        },
        {
          "internalType": "address",
          "name": "to",
          "type": "address"
        }
      ],
      "name": "withdrawHouse",
      "outputs": [],
      "stateMutability": "nonpayable",
      "type": "function"
    }
  ],
  "bytecode": "0x608060405234801561001057600080fd5b506040516108e53803806108e583398101604081905261002f91610069565b60008054336001600160a01b031991821617909155600180549091166001600160a01b0394909416939093179092556003556004556100ac565b60008060006060848603121561007e57600080fd5b83516001600160a01b038116811461009557600080fd5b602085015160409095015190969495509392505050565b61082a806100bb6000396000f3fe6080604052600436106100a75760003560e01c80636afbb01b116100645780636afbb01b146101555780638da5cb5b1461015d578063d51b5c9814610195578063f19a0b54146101b5578063f7cf8b24146101d5578063fd922a42146101f557600080fd5b806311610c25146100ac57806316c38b3c146100b65780631bc6158c146100d6578063252cf2d2146100ff5780635c975abb1461011557806367084eb31461013f575b600080fd5b6100b4610215565b005b3480156100c257600080fd5b506100b46100d13660046106d9565b6102a9565b3480156100e257600080fd5b506100ec60045481565b6040519081526020015b60405180910390f35b34801561010b57600080fd5b506100ec60035481565b34801561012157600080fd5b5060055461012f9060ff1681565b60405190151581526020016100f6565b34801561014b57600080fd5b506100ec60025481565b6100b4610323565b34801561016957600080fd5b5060005461017d906001600160a01b031681565b6040516001600160a01b0390911681526020016100f6565b3480156101a157600080fd5b506100b46101b036600461071e565b61038d565b3480156101c157600080fd5b506100b46101d036600461074a565b6104dd565b3480156101e157600080fd5b506100b46101f0366004610765565b610551565b34801561020157600080fd5b5060015461017d906001600160a01b031681565b60055460ff1615610239576040516313d0ff5960e31b815260040160405180910390fd5b3460000361025a57604051637c946ed760e01b815260040160405180910390fd5b346002600082825461026c91906107a5565b909155505060405134815233907f43e08d78302cdf9c94e1ffd293c2a3696139ee41cf3199b6f5eed9c7f6cc6090906020015b60405180910390a2565b6000546001600160a01b031633146102dc5760405162461bcd60e51b81526004016102d3906107be565b60405180910390fd5b6005805460ff19168215159081179091556040519081527f40db37ff5c0bdc2c427fbb2078c8f24afea940abac0e3c23bb4ea3bf2da2b2129060200160405180910390a150565b3460000361034457604051637c946ed760e01b815260040160405180910390fd5b346002600082825461035691906107a5565b909155505060405134815233907f68b5652e3b29601ecd57e94e383b10ba5e2f2726963da06839bb31da7e5dd0d99060200161029f565b6000546001600160a01b031633146103b75760405162461bcd60e51b81526004016102d3906107be565b600354826002546103c891906107e1565b10156103e75760405163bd0f8f7f60e01b815260040160405180910390fd5b81600260008282546103f991906107e1565b90915550506040516000906001600160a01b0383169084908381818185875af1925050503d8060008114610449576040519150601f19603f3d011682016040523d82523d6000602084013e61044e565b606091505b50509050806104955760405162461bcd60e51b8152602060048201526013602482015272115512081d1c985b9cd9995c8819985a5b1959606a1b60448201526064016102d3565b816001600160a01b03167fd7d7cc9b93e284aa94ef15ab7a70191483528f4e45d0bd07818aef974077ba78846040516104d091815260200190565b60405180910390a2505050565b6000546001600160a01b031633146105075760405162461bcd60e51b81526004016102d3906107be565b600180546001600160a01b0319166001600160a01b0383169081179091556040517f9c29ab3236ec9f8324cf54a7fe86a185c8bcf7cc84de122fa658fc556c56951e90600090a250565b6001546001600160a01b0316331461057c5760405163136e14d160e31b815260040160405180910390fd5b60055460ff16156105a0576040516313d0ff5960e31b815260040160405180910390fd5b80156106d5576004548111156105c957604051631f84400760e31b815260040160405180910390fd5b6002548111156105ec57604051631f84400760e31b815260040160405180910390fd5b80600260008282546105fe91906107e1565b90915550506040516000906001600160a01b0384169083908381818185875af1925050503d806000811461064e576040519150601f19603f3d011682016040523d82523d6000602084013e610653565b606091505b505090508061069a5760405162461bcd60e51b8152602060048201526013602482015272115512081d1c985b9cd9995c8819985a5b1959606a1b60448201526064016102d3565b826001600160a01b03167f98142b0c9eb316bae24ebfb6d3d057b1508e5a919afdec00610327d707c04c7a836040516104d091815260200190565b5050565b6000602082840312156106eb57600080fd5b813580151581146106fb57600080fd5b9392505050565b80356001600160a01b038116811461071957600080fd5b919050565b6000806040838503121561073157600080fd5b8235915061074160208401610702565b90509250929050565b60006020828403121561075c57600080fd5b6106fb82610702565b6000806040838503121561077857600080fd5b61078183610702565b946020939093013593505050565b634e487b7160e01b600052601160045260246000fd5b808201808211156107b8576107b861078f565b92915050565b6020808252600990820152682737ba1037bbb732b960b91b604082015260600190565b818103818111156107b8576107b861078f56fea26469706673582212203a1384f71b06e7c9209401e9411b24a9c80ba03443e87d28806f26178c1030be64736f6c63430008180033",
  "linkReferences": {},
  "deployedLinkReferences": {}
}